:100000000C9434000C9451000C9451000C94510049
:100010000C943E010C9451000C9451000C9451002E
:100020000C9451000C9451000C9451000C9422013A
:100030000C9451000C9451000C9451000C945100FC
:100040000C9451000C9451000C9451000C945100EC
:100050000C9451000C9451000C9451000C945100DC
:100060000C9451000C94510011241FBECFEFD8E026
:10007000DEBFCDBF11E0A0E0B1E0ECE2FEE002C0E7
:1000800005900D92A43BB107D9F721E0A4EBB1E0B4
:1000900001C01D92AE3BB207E1F70E945D020C94D5
:1000A00014070C940000AF92BF92CF92DF92EF92B0
:1000B000FF920F931F93CF93DF93CDB7DEB7A29735
:1000C0000FB6F894DEBF0FBECDBF90E2813021F0B5
:1000D000823009F041C09CE39A8B9EE399A390E3A0
:1000E000980F998390E2988B97E0899F802D112437
:1000F00099EF980F492F50E040505F4F5E0122E189
:10010000A20EB11CDE01119675018D01F0E2DF2E09
:10011000981740F181E00E94CC0160E080E00E94ED
:10012000DE01C7010E94350260E081E00E94DE012D
:10013000C8010E943502A2960FB6F894DEBF0FBE2A
:10014000CDBFDF91CF911F910F91FF90EF90DF9086
:10015000CF90BF90AF900895833009F69CE39A8BBF
:1001600090E2BCCFFA012191AF0130E0B901660FF6
:10017000771F6F5C7E4FFB01C080F501C182FB01E0
:100180006181F5016283295E3E4FF901208111965C
:100190002C9311971296DC9212979F5FF2E0AF0EAC
:1001A000B11C1296B5CFCF93DF93EC019C0150E0C8
:1001B00040E068E478EE81E090E00E94DA0330935A
:1001C0008900209388008091810083608093810062
:1001D0008091B4019091B501C817D90760F480915E
:1001E0008100887F809381001092B5011092B40144
:1001F000DF91CF9108958091B601813011F42C9A4E
:10020000E7CF8091B601823019F72C981092B60191
:10021000DFCF05966AE070E00E94C6036150710965
:1002200008F4089585E38A95F1F70000F7CFE1E837
:10023000F0E0808188608083EFE6F0E0808182607A
:10024000808308951F920F920FB60F9211248F93FF
:100250009F938091B6018F5F8093B6018091B40126
:100260009091B50101969093B5018093B4019F914F
:100270008F910F900FBE0F901F9018951F920F92A5
:100280000FB60F9211248F939F9386B18093BA017A
:100290008091BA0182708093BD018091BA01807211
:1002A0008093B9018091BB01811114C08091BD017F
:1002B000882341F081E08093BC018091B701815097
:1002C0008093B7018091B9018823F9F082E080938F
:1002D000BC0116C08091BB01813059F58091B901F4
:1002E000882341F083E08093BC018091B701815065
:1002F0008093B7018091BD01811107C01092BC01AC
:100300008091B7018F5F8093B7019091BC0180917C
:10031000BB01981739F081E08093B8018091BC014E
:100320008093BB019F918F910F900FBE0F901F90F4
:1003300018958091BB01823089F48091B9018111B7
:1003400007C01092BC018091B70181508093B70122
:100350008091BD018823C9F283E0B9CF8091BD01AE
:10036000811108C082E08093BC018091B701815067
:100370008093B7018091B9018111C7CF81E0A7CFE8
:1003800008959BB19F709BB99BB1807F892B8BB9DE
:10039000299A299A29980895CF93C82F28980E94BE
:1003A000C1018C2F8295807F0E94C1018FE39FE164
:1003B0000197F1F700C00000CF910895811104C0AA
:1003C00080E8860F0C94CC0180ECFBCF84B1836075
:1003D00084B98AB1806F8AB98FE59AEE0197F1F7F7
:1003E00000C0000080E20E94C1018FE19EE40197FD
:1003F000F1F700C0000080E20E94C1018FED91E0A2
:100400000197F1F700C0000080E20E94C10180E185
:100410000E94C1018FE39FE10197F1F700C0000046
:1004200088E20E94CC018FE39FE10197F1F700C0C1
:1004300000008FE00E94CC018FE39FE10197F1F76C
:1004400000C000000895CF93C82F289A0E94C101D0
:100450008C2F8295807F0E94C1018FE39FE10197DD
:10046000F1F700C00000CF910895CF93DF93EC0126
:100470008991811103C0DF91CF9108950E942302D9
:10048000F7CFECE7F0E0808180668083EAE7F0E078
:10049000808187688083089590917C00892B809368
:1004A0007C0080917A00806480937A0080917A0049
:1004B00086FDFCCF809179000895CF93DF9300D023
:1004C00000D01F92CDB7DEB70E94E6010E94410224
:1004D0000E94170188B1826288B9809168008260A9
:1004E0008093680080916C00826280936C00249AF3
:1004F0002C9A789481E00E94CC0163E080E00E9415
:10050000DE0189E991E00E94350263E081E00E940A
:10051000DE0183EA91E00E9435022FEF83ED90E344
:10052000215080409040E1F700C0000081E00E942F
:10053000CC01809115010E9453006091160180E06A
:100540000E94DE0186B18093BA018091BA01827067
:100550008093BD018091BA0180728093B90180912E
:10056000B9018111B5C08091BD018111B1C0109256
:10057000BB018091BB018093BC01552453944DE095
:10058000442E57E0352E6DEA862E61E0962E73E0FC
:10059000672EDE0111965D01E0EBCE2EE1E0DE2E4E
:1005A000F2E07F2E7E01B4E0EB0EF11C80E00E94B1
:1005B0004C02873D28F597ED980F933118F08A305B
:1005C00008F0A5C0809116018D3009F099C0809186
:1005D0001501833038F48F5F809315015092160116
:1005E0000E9453006091160180E00E94DE018FEFAF
:1005F00092E5A7E081509040A040E1F700C00000E4
:100600008091B801882391F21092B8018091150170
:10061000009116010695839D000D1124075010E0EE
:1006200000501F4FF8019081292F30E08091B701D1
:10063000A901480F511D87FD5A9557FDB7CF8091ED
:10064000B701280F311D87FD3A952A3131050CF08D
:10065000ADCF8091B701890F80831092B70190E0F0
:10066000880F991F8F5C9E4F9F938F939F928F92BD
:100670001F926F92BF92AF920E942F04C5010E94F9
:1006800035026091160181E00E94DE01D801EC91F3
:10069000F0E0E95EFE4F8081282F082E000C330B1E
:1006A0003F938F93DF92CF921F927F92FF92EF92B0
:1006B0000E942F04C7010E9435026091160180E05C
:1006C0000E94DE010FB6F894DEBF0FBECDBF6ECF25
:1006D0008091B901811108C08091BD01882321F06A
:1006E00081E08093BB0145CF8091B901882331F02F
:1006F0008091BD01811102C082E0F3CF83E0F1CF90
:100700008C3008F06FCF8E5F809316016BCF9EE622
:10071000980F933120F095EA980F9331A0F48091CF
:100720001601813059F480911501823008F45ACFB6
:100730008150809315014092160152CF833008F406
:1007400051CF8250E1CF843C08F451CF10E013C068
:10075000F0E0EE0FFF1FEB59FE4F80819181009773
:1007600091F4EFEFF9E628E1E150F0402040E1F7A5
:1007700000C000001F5FE12FF0E0E050FF4FE0817C
:10078000E111E6CF34CF0E94D300F4CF97FB072EC0
:1007900016F4009407D077FD09D00E94F90307FCF6
:1007A00005D03EF4909581959F4F08957095619581
:1007B0007F4F0895052E97FB1EF400940E94F103CD
:1007C00057FD07D00E940D0407FC03D04EF40C9493
:1007D000F10350954095309521953F4F4F4F5F4F16
:1007E000089590958095709561957F4F8F4F9F4F9D
:1007F0000895AA1BBB1B51E107C0AA1FBB1FA61768
:10080000B70710F0A61BB70B881F991F5A95A9F7B9
:1008100080959095BC01CD010895A1E21A2EAA1BE6
:10082000BB1BFD010DC0AA1FBB1FEE1FFF1FA217A0
:10083000B307E407F50720F0A21BB30BE40BF50B9D
:10084000661F771F881F991F1A9469F76095709526
:10085000809590959B01AC01BD01CF010895AEE05C
:10086000B0E0E5E3F4E00C94EB060D891E898F8976
:10087000988D26E02C831A83098397FF02C080E0BD
:1008800090E801979E838D83AE01455E5F4F698D31
:100890007A8DCE0101960E945F044D815E8157FDE5
:1008A0000AC02F813885421753070CF49A01020FB2
:1008B000131FF80110822E96E4E00C940707ABE0BA
:1008C000B0E0E5E6F4E00C94DD067C013B018A0132
:1008D000FC0117821682838181FFC8C1CE01019677
:1008E0005C01F7019381F30193FD859193FF819161
:1008F0003F01882309F453C1853239F493FD859172
:1009000093FF81913F01853229F4B70190E00E9465
:100910004F06E7CF912C212C312CFFE1F31538F055
:100920008B3211F190F4803209F1833229F137FCD6
:100930003CC020ED280F2A3050F536FE20C08AE05A
:10094000989E200D1124922E06C08D3291F0803396
:1009500071F7689430F8F30193FD859193FF8191CD
:100960003F018111DACF21C0689431F8689432F8E0
:10097000F2CF689433F8EFCF689434F8ECCFEAE024
:100980002E9E200D1124222E689435F8E4CF8E324D
:1009900029F436FC04C1689436F8DDCF8C3619F49E
:1009A000689437F8D8CF8836B1F2982F9F7D955448
:1009B0009330E0F08336A1F18337C1F1833509F03C
:1009C00063C02801F2E04F0E511CF801C080D180B5
:1009D000692D70E036FC02C06FEF7FEFC6010E9408
:1009E00039064C01689437F882010AC00C5F1F4F2A
:1009F000FFE3F98388248394912C6501E89437F808
:100A000033FE2DC0522C8114910471F5552009F448
:100A100068CFB70180E290E00E944F065A94F6CF6B
:100A2000F801808189830E5F1F4FE4CF2801F2E037
:100A30004F0E511CF801C080D180692D70E036FC4A
:100A400002C06FEF7FEFC6010E9444064C01820195
:100A5000D5CFB70180E290E00E944F062A94281477
:100A6000190409F0B0F7CECFF60137FC859137FEB7
:100A700081916F01B70190E00E944F0651105A9486
:100A8000F1E08F1A9108BFCF843619F0893609F04A
:100A900077C0F80137FE6BC06081718182819381DC
:100AA0000C5F1F4FF32DFF763F2E97FF09C09095E7
:100AB0008095709561957F4F8F4F9F4F689437F861
:100AC0002AE030E0A5010E947F06C82ECA188C2CAF
:100AD000432C36FE0CC0E89440F8C91440F434FEB0
:100AE00005C032FC03C0F32DFE7E4F2E892C44FE40
:100AF00095C0FE01EC0DF11D8081803309F087C0A7
:100B0000242D297E422E842D8870582E43FC95C0BA
:100B100040FE8FC09C2C821418F42C0C922C981838
:100B200044FE91C0B70180E390E00E944F0642FE70
:100B300009C088E790E041FE02C088E590E0B70177
:100B40000E944F06C91408F48AC0CA94D12C9FEFA2
:100B5000C91AD90ACA0CDB1CF60182916F01B701D0
:100B600090E00E944F06AC14BD04B1F74FCF6081F6
:100B70007181072E000C880B990B0E5F1F4F92CFCF
:100B8000D32CE894D4F82AE030E0853739F1232DCE
:100B9000297FD22E8F3601F148F48835A9F0F7016C
:100BA000868197812B96E2E10C94F906803749F013
:100BB0008837A9F7D4FE02C06894D2F820E130E06B
:100BC0000DC06894D4F8F6CF34FE03C0822F86603F
:100BD000D82E20E132E002C028E030E0F801D7FE54
:100BE0000FC060817181828193810C5F1F4FA501CD
:100BF0000E947F06C82ECA183D2CE89437F867CFAC
:100C00006081718190E080E00E5F1F4FF0CF42FC69
:100C100002C0839478CF8394839475CF842D867893
:100C200009F471CFF6CFB70180E290E00E944F0641
:100C300083948214C0F3512C73CF522C5818821411
:100C400008F46ECFF8CF842D867809F47BCF8BE241
:100C500041FE80E247FC8DE2B70190E071CFB70121
:100C600080E390E00E944F069A946CCF8FEF9FEF45
:100C700099CFFC010590615070400110D8F7809524
:100C800090958E0F9F1F0895FC0161507040019058
:100C90000110D8F7809590958E0F9F1F08950F93A0
:100CA0001F93CF93DF93182F092FEB018B8181FDC9
:100CB00009C01FEF0FEF812F902FDF91CF911F9170
:100CC0000F91089582FF14C02E813F818C819D81F8
:100CD000281739073CF4E881F981CF0101969983FF
:100CE000888310838E819F8101969F838E83E3CFBB
:100CF000E885F985812F0995892BA1F3DACFFA01CF
:100D0000AA27283051F1203181F1E8946F936E7F4A
:100D10006E5F7F4F8F4F9F4FAF4FB1E03ED0B4E03B
:100D20003CD0670F781F891F9A1FA11D680F791F7C
:100D30008A1F911DA11D6A0F711D811D911DA11D8D
:100D400020D009F468943F912AE0269F112430199D
:100D5000305D3193DEF6CF010895462F4770405D38
:100D60004193B3E00FD0C9F7F6CF462F4F70405DE7
:100D70004A3318F0495D31FD4052419302D0A9F742
:100D8000EACFB4E0A6959795879577956795BA953C
:100D9000C9F700976105710508959B01AC010A2E02
:100DA00006945795479537952795BA95C9F7620FD9
:100DB000731F841F951FA01D08952F923F924F927D
:100DC0005F926F927F928F929F92AF92BF92CF92DB
:100DD000DF92EF92FF920F931F93CF93DF93CDB7E4
:100DE000DEB7CA1BDB0B0FB6F894DEBF0FBECDBF5C
:100DF00009942A88398848885F846E847D848C842D
:100E00009B84AA84B984C884DF80EE80FD800C8135
:100E10001B81AA81B981CE0FD11D0FB6F894DEBF18
:0C0E20000FBECDBFED010895F894FFCF88
:100E2C00111112141412110F0D0D0F11110F0F00BF
:100E3C0000000000000101203333333333333333EC
:100E4C00333333333434343434343434343434345A
:100E5C00352020432043234420442345204620466C
:100E6C00234720472341204123422043204323444E
:100E7C002044234520462046234720472341204138
:100E8C002342204320000083008B0093009C00A58C
:100E9C0000B000B900C400D000DC00E900F7000687
:100EAC00011501260137014A015D01720188019F7C
:100EBC0001B801D201EE010B024D7573696320423A
:100ECC006F7800456D696C79204B756F0025730048
:040EDC00256300008A
:00000001FF
